S011000047395F526F756E64362E73726563F6
S11300000C942A000C9447000C948B010C94A903C3
S11300100C9447000C9447000C9447000C94470040
S11300200C9447000C9447000C9447000C94470030
S11300300C9447000C9447000C9447000C94470020
S11300400C9447000C9447000C9447000C94470010
S11300500C94470011241FBECFE5D8E0DEBFCDBF0E
S113006010E0A0E6B0E0E8EAF7E002C005900D92E7
S1130070AC39B107D9F720E0ACE9B0E001C01D927A
S1130080AF39B207E1F70E9467010C94D2030C94D4
S11300900000CF93C0E006C061E085E18C1B0E94A4
S11300A0A702CF5FC430C0F3CF910895CF93C82F78
S11300B060E083E00E94A7026C2F661F6627661F1C
S11300C08CE00E94A702C6FB662760F98AE00E94C2
S11300D0A702C5FB662760F989E00E94A702C4FB5A
S11300E0662760F988E00E94A70261E082E00E942E
S11300F0A7028FE99FE00197F1F700C0000060E0DC
S113010082E00E94A7028FE99FE00197F1F700C007
S11301100000C3FB662760F98CE00E94A702C2FBC3
S1130120662760F98AE00E94A702C1FB662760F98E
S113013089E00E94A7026C2F617088E00E94A702E8
S113014061E082E00E94A7028FE99FE00197F1F746
S113015000C0000060E082E00E94A7028FE99FE0F7
S11301600197F1F700C00000CF9108952FEF80E7C9
S113017092E0215080409040E1F700C0000082E00E
S11301800E94560088E20E9456008CE00E945600AD
S113019081E00E9456008FE99FE00197F1F700C0CB
S11301A0000086E00E9456000895CF93C82F61E0B6
S11301B083E00E94A7026C2F661F6627661F8CE0EF
S11301C00E94A702C6FB662760F98AE00E94A70284
S11301D0C5FB662760F989E00E94A702C4FB662775
S11301E060F988E00E94A70261E082E00E94A70211
S11301F08FE99FE00197F1F700C0000060E082E022
S11302000E94A7028FE99FE00197F1F700C0000068
S1130210C3FB662760F98CE00E94A702C2FB662735
S113022060F98AE00E94A702C1FB662760F989E0B1
S11302300E94A7026C2F617088E00E94A70261E00F
S113024082E00E94A7028FE99FE00197F1F700C0C6
S1130250000060E082E00E94A7028FE99FE001971E
S1130260F1F700C00000CF910895811105C080E826
S1130270860F0E9456000895813029F480EC860F81
S11302800E9456000895823029F484E9860F0E9462
S113029056000895833021F484ED860F0E945600A1
S11302A008950E94D50008950F931F93CF938C0156
S11302B0C0E003C00E945101CF5FF801EC0FF11DB3
S11302C080818111F7CFCF911F910F9108950E94E2
S11302D097020E94B6000E9449000E949C0381E09C
S11302E00E942A0363E081E00E943C0360E080E016
S11302F00E94350180E690E00E94540160E081E0B4
S11303000E94350180919C008130E1F78DE690E0F8
S11303100E945401F7CF1F920F920FB60F9211242F
S11303208F9381E080939C008F910F900FBE0F906C
S11303301F901895982F97708695869586956130AD
S113034009F455C020F0623009F4A1C00895813049
S1130350C1F028F0823039F18330B9F108954AB3FD
S113036021E030E0B90102C0660F771F9A95E2F7E9
S1130370CB01942F982B9ABB9BB3809589238BBB7D
S1130380089547B321E030E0B90102C0660F771F3A
S11303909A95E2F7CB01942F982B97BB98B380954D
S11303A0892388BB089544B321E030E0B90102C039
S11303B0660F771F9A95E2F7CB01942F982B94BB85
S11303C095B38095892385BB089541B321E030E03E
S11303D0B90102C0660F771F9A95E2F7CB01942FFB
S11303E0982B91BB92B38095892382BB0895813069
S11303F0C1F028F0823039F18330B9F108954AB35D
S113040021E030E0B90102C0660F771F9A95E2F748
S1130410CB018095942F98239ABB9BB389238BBBE4
S1130420089547B321E030E0B90102C0660F771F99
S11304309A95E2F7CB018095942F982397BB98B3B4
S1130440892388BB089544B321E030E0B90102C098
S1130450660F771F9A95E2F7CB018095942F982326
S113046094BB95B3892385BB089541B321E030E063
S1130470B90102C0660F771F9A95E2F7CB01809508
S1130480942F982391BB92B3892382BB0895813022
S1130490C1F028F0823039F18330B9F108954AB3BC
S11304A021E030E0B90102C0660F771F9A95E2F7A8
S11304B0CB01962F909594239ABB9BB3892B8BBB2E
S11304C0089547B321E030E0B90102C0660F771FF9
S11304D09A95E2F7CB01962F9095942397BB98B306
S11304E0892B88BB089544B321E030E0B90102C0F0
S11304F0660F771F9A95E2F7CB01962F9095942378
S113050094BB95B3892B85BB089541B321E030E0BA
S1130510B90102C0660F771F9A95E2F7CB01962FB7
S11305209095942391BB92B3892B82BB0895CF936A
S1130530C0E009C0EC2FF0E0E458FF4F60818C2F3D
S11305400E949A01CF5FC032A8F3CF910895982FEB
S113055097708695869586956130E1F5813099F09E
S113056028F08230E9F0833041F108954BB321E063
S113057030E0B90102C0660F771F9A95E2F7CB010C
S1130580842B8BBB089548B321E030E0B90102C04D
S1130590660F771F9A95E2F7CB01842B88BB0895E9
S11305A045B321E030E0B90102C0660F771F9A9588
S11305B0E2F7CB01842B85BB089542B321E030E000
S11305C0B90102C0660F771F9A95E2F7CB01842B1D
S11305D082BB08958130A1F028F08230F9F0833095
S11305E059F108954BB321E030E0B90102C0660F20
S11305F0771F9A95E2F7CB01809584238BBB0895EE
S113060048B321E030E0B90102C0660F771F9A9524
S1130610E2F7CB018095842388BB089545B321E09C
S113062030E0B90102C0660F771F9A95E2F7CB015B
S11306308095842385BB089542B321E030E0B9015D
S113064002C0660F771F9A95E2F7CB018095842349
S113065082BB0895813041F018F0823049F008954A
S11306608BB780648BBF08958BB780688BBF089568
S11306708BB780628BBF0895813049F120F08230BE
S113068009F449C00895613069F028F0623089F0B6
S11306906330B1F0089585B78E7F85BF85B78D7FB0
S11306A085BF089585B7816085BF85B78D7F85BF78
S11306B0089585B78E7F85BF85B7826085BF08950D
S11306C085B7816085BF85B7826085BF0895613035
S11306D069F028F0623089F06330B1F0089585B78D
S11306E08B7F85BF85B7877F85BF089585B7846075
S11306F085BF85B7877F85BF089585B78B7F85BF05
S113070085B7886085BF089585B7846085BF85B740
S1130710886085BF0895623019F0633029F008C0FD
S113072084B78F7B84BF089584B7806484BF0895A1
S113073084B78F7B84BF089562E080E00E943C030D
S113074062E081E00E943C0362E082E00E943C039C
S113075008951F920F920FB60F9211242F933F9377
S11307604F935F936F937F938F939F93AF93BF93B5
S1130770EF93FF93E0919D00F0919E00309709F074
S11307800995FF91EF91BF91AF919F918F917F91C7
S11307906F915F914F913F912F910F900FBE0F90EA
S10B07A01F901895F894FFCF97
S11307A8455820496E7465727275707400696E7468
S11307B865727275707420646F6E650000000000C5
S11307C8000000000000000000000000000000001D
S10F07D800000000000000020202020207
S9030000FC
