:100000000C942A000C9447000C942D020C940C04C0
:100010000C9447000C9447000C9447000C94470044
:100020000C9447000C9447000C9447000C94470034
:100030000C9447000C9447000C9447000C94470024
:100040000C9447000C9447000C9447000C94470014
:100050000C94470011241FBECFE5D8E0DEBFCDBF12
:1000600010E0A0E6B0E0E0EFF8E002C005900D92ED
:10007000AE38B107D9F720E0AEE8B0E001C01D927C
:10008000A239B207E1F70E94DD010C9476040C94CA
:100090000000CF93C5E161E08C2F0E943703C1506F
:1000A000C131C9F7CF910895CF93C82F60E083E0A5
:1000B0000E9437036C2F661F6627661F8CE00E9424
:1000C0003703C6FB662760F98AE00E943703C5FB49
:1000D000662760F989E00E943703C4FB662760F950
:1000E00088E00E94370361E082E00E9437038FE9D5
:1000F0009FE00197F1F700C0000060E082E00E94FD
:1001000037038FE99FE00197F1F700C00000C3FBC0
:10011000662760F98CE00E943703C2FB662760F90E
:100120008AE00E943703C1FB662760F989E00E94DC
:1001300037036C2F617088E00E94370361E082E032
:100140000E9437038FE99FE00197F1F700C000009C
:1001500060E082E00E9437038FE99FE00197F1F7AA
:1001600000C00000CF9108952FEF80E792E021506A
:1001700080409040E1F700C0000082E00E945400FF
:1001800088E20E9454008CE00E94540081E00E94AA
:1001900054008FE99FE00197F1F700C0000086E06E
:1001A0000C945400CF93C82F61E083E00E94370382
:1001B0006C2F661F6627661F8CE00E943703C6FB04
:1001C000662760F98AE00E943703C5FB662760F95D
:1001D00089E00E943703C4FB662760F988E00E942B
:1001E000370361E082E00E9437038FE99FE00197C7
:1001F000F1F700C0000060E082E00E9437038FE961
:100200009FE00197F1F700C00000C3FB662760F98B
:100210008CE00E943703C2FB662760F98AE00E94E7
:100220003703C1FB662760F989E00E9437036C2F12
:10023000617088E00E94370361E082E00E9437032A
:100240008FE99FE00197F1F700C0000060E082E0D5
:100250000E9437038FE99FE00197F1F700C000008B
:10026000CF910895982F862F911102C080580BC00E
:10027000913011F4805407C0923011F48C5603C0B1
:10028000933019F48C520C94540008950F931F93DB
:10029000CF938C01C0E0F801EC0FF11D8081882321
:1002A00021F00E94D200CF5FF6CFCF911F910F9126
:1002B00008954F925F926F927F92AF92BF92CF92CA
:1002C000DF92EF92FF921F93CF93DF93CDB7DEB70C
:1002D00064970FB6F894DEBF0FBECDBF6B017C01F3
:1002E0006115710581059105B1F480E364960FB63F
:1002F000F894DEBF0FBECDBFDF91CF911F91FF906D
:10030000EF90DF90CF90BF90AF907F906F905F9015
:100310004F900C94D20097FF0BC08DE20E94D20048
:10032000F094E094D094C094C11CD11CE11CF11C49
:1003300010E09AE0492E512C612C712CAA24A39430
:10034000B12CAC0EBD1EA10EB11CC701B601A3019C
:1003500092010E943504605DF501608381E0810FA8
:1003600069017A01C114D104E104F10411F0182FDC
:10037000E5CFF12EF7FC0DC0E1E0F0E0EC0FFD1F42
:10038000EF0DF11DF7FCFA9580810E94D200FA94DE
:10039000F1CF64960FB6F894DEBF0FBECDBFDF91EC
:1003A000CF911F91FF90EF90DF90CF90BF90AF90D3
:1003B0007F906F905F904F9008950E9459020E9425
:1003C000B4000E94490063E081E00E94C60381E01E
:1003D0000E94B603789460E080E00E94320180E6DB
:1003E00090E00E94460160E081E00E94320180912D
:1003F0008E008130E1F780918F00813021F1809172
:100400008F00823001F180918F008330E1F0809184
:100410008F008430C1F080918F008530A1F08091F1
:100420008F00863081F080918F00873061F080915D
:100430008F00883041F080918F00893021F08091C9
:100440008F008A30A1F660918F0070E080E090E02C
:100450000E94590110928E00CACF1F920F920FB6C0
:100460000F9211242F938F939F9380918E0081116F
:1004700005C080918F008F5F80938F0080918F00E7
:100480008B3019F481E080938F002FEF80E792E0AA
:10049000215080409040E1F700C0000081E080934F
:1004A0008E009F918F912F910F900FBE0F901F90F4
:1004B0001895EDE6F0E040E081E090E05191242FC6
:1004C0002770342F369536953695513009F443C050
:1004D00020F0523009F482C0C5C0323001F133300F
:1004E00061F1313071F05AB3BC0102C0660F771F61
:1004F0002A95E2F79B01352F322B3ABB3BB320956F
:100500003DC057B3BC0102C0660F771F2A95E2F7C2
:100510009B01352F322B37BB38B320953EC054B3E7
:10052000BC0102C0660F771F2A95E2F79B01352FA9
:10053000322B34BB35B320953FC051B3BC0102C050
:10054000660F771F2A95E2F79B01352F322B31BBBF
:1005500032B3209541C0323011F1333081F1313066
:1005600079F05AB3BC0102C0660F771F2A95E2F7F3
:100570009B012095352F32233ABB3BB3232342C046
:1005800057B3BC0102C0660F771F2A95E2F79B01A3
:100590002095352F322337BB38B3232343C054B3C0
:1005A000BC0102C0660F771F2A95E2F79B012095D8
:1005B000352F322334BB35B3232325BB53C051B36E
:1005C000BC0102C0660F771F2A95E2F79B012095B8
:1005D000352F322331BB32B3232343C0323021F1D4
:1005E000333089F1313081F05AB3BC0102C0660F5B
:1005F000771F2A95E2F79B01362F309535233ABBBA
:100600003BB3232B2BBB2EC057B3BC0102C0660FDC
:10061000771F2A95E2F79B01362F3095352337BB9C
:1006200038B3232B28BB1EC054B3BC0102C0660FD5
:10063000771F2A95E2F79B01362F3095352334BB7F
:1006400035B3232BBACF51B3BC0102C0660F771F5D
:100650002A95E2F79B01362F3095352331BB32B313
:10066000232B22BB4F5F403209F028CF0895982FEB
:1006700097708695869586956130C1F5813091F0A9
:1006800028F08230D9F0833029F108954BB321E06E
:1006900030E0B90102C0660F771F9A95E2F7CB01EF
:1006A000842B38C048B321E030E0B90102C0660FA6
:1006B000771F9A95E2F7CB01842B3AC045B321E02E
:1006C00030E0B90102C0660F771F9A95E2F7CB01BF
:1006D000842B3CC042B321E030E0B90102C0660F78
:1006E000771F9A95E2F7CB01842B3EC08130A1F0B1
:1006F00028F08230F9F0833059F108954BB321E0AE
:1007000030E0B90102C0660F771F9A95E2F7CB017E
:10071000809584238BBB089548B321E030E0B90174
:1007200002C0660F771F9A95E2F7CB01809584236C
:1007300088BB089545B321E030E0B90102C0660FDF
:10074000771F9A95E2F7CB018095842385BB0895A6
:1007500042B321E030E0B90102C0660F771F9A95DD
:10076000E2F7CB018095842382BB0895813039F074
:1007700018F0823039F008958BB7806405C08BB7CC
:10078000806802C08BB780628BBF08958130F1F022
:1007900018F08230B1F10895613049F028F06230EC
:1007A00061F0633069F0089585B78E7F02C085B728
:1007B000816085BF85B78D7F22C085B78E7F02C0DF
:1007C00085B7816085BF85B7826019C0613049F007
:1007D00028F0623061F0633069F0089585B78B7F4F
:1007E00002C085B7846085BF85B7877F08C085B79D
:1007F0008B7F02C085B7846085BF85B7886085BF61
:100800000895623029F0633019F484B7806402C01F
:1008100084B78F7B84BF08951F920F920FB60F92FB
:1008200011242F933F934F935F936F937F938F93F5
:100830009F93AF93BF93EF93FF93E0919000F0915C
:100840009100309709F00995FF91EF91BF91AF9119
:100850009F918F917F916F915F914F913F912F91D8
:100860000F900FBE0F901F901895052E97FB1EF44A
:1008700000940E944C0457FD07D00E94540407FCCA
:1008800003D04EF40C944C0450954095309521952E
:100890003F4F4F4F5F4F08959095809570956195AC
:1008A0007F4F8F4F9F4F0895A1E21A2EAA1BBB1BAB
:1008B000FD010DC0AA1FBB1FEE1FFF1FA217B3072C
:1008C000E407F50720F0A21BB30BE40BF50B661F42
:1008D000771F881F991F1A9469F760957095809506
:1008E00090959B01AC01BD01CF010895F894FFCF15
:1008F000455820496E74657272757074000000006E
:1009000000000000000000000000000000000000E7
:0E0910000000000000000000020202020200CF
:00000001FF
