:100000000C942A000C9447000C9447000C947C0339
:100010000C9447000C9447000C9444040C94F20395
:100020000C941B040C94C9030C9447000C94860197
:100030000C9447000C9447000C9447000C94470024
:100040000C94B4010C9447000C9447000C944700A6
:100050000C94470011241FBECFE5D8E0DEBFCDBF12
:1000600010E0A0E6B0E0E6EFF8E002C005900D92E7
:10007000AC38B107D9F720E0ACE8B0E001C01D9280
:10008000AB39B207E1F70E944E010C9479040C944D
:100090000000CF93C82F60E083E00E94C8026C2F5D
:1000A000661F6627661F8CE00E94C802C6FB662793
:1000B00060F98AE00E94C802C5FB662760F989E002
:1000C0000E94C802C4FB662760F988E00E94C8024B
:1000D00061E082E00E94C8028FE99FE00197F1F79A
:1000E00000C0000060E082E00E94C8028FE99FE04B
:1000F0000197F1F700C00000C3FB662760F98CE0B0
:100100000E94C802C2FB662760F98AE00E94C8020A
:10011000C1FB662760F989E00E94C8026C2F6170FC
:1001200088E00E94C80261E082E00E94C8028FE974
:100130009FE00197F1F700C0000060E082E00E94BC
:10014000C8028FE99FE00197F1F700C00000CF914E
:1001500008952FEF80E792E0215080409040E1F732
:1001600000C0000082E00E94490088E20E9449002D
:100170008CE00E94490081E00E9449008FE99FE0E5
:100180000197F1F700C0000086E00C944900CF937E
:10019000C82F61E083E00E94C8026C2F661F6627AB
:1001A000661F8CE00E94C802C6FB662760F98AE0E1
:1001B0000E94C802C5FB662760F989E00E94C80258
:1001C000C4FB662760F988E00E94C80261E082E013
:1001D0000E94C8028FE99FE00197F1F700C000007C
:1001E00060E082E00E94C8028FE99FE00197F1F78A
:1001F00000C00000C3FB662760F98CE00E94C802C3
:10020000C2FB662760F98AE00E94C802C1FB66272C
:1002100060F989E00E94C8026C2F617088E00E943A
:10022000C80261E082E00E94C8028FE99FE0019766
:10023000F1F700C0000060E082E00E94C8028FE990
:100240009FE00197F1F700C00000CF910895982F2B
:10025000862F911102C080580BC0913011F4805448
:1002600007C0923011F48C5603C0933019F48C52AD
:100270000C94490008950F931F93CF938C01C0E015
:10028000F801EC0FF11D8081882321F00E94C70046
:10029000CF5FF6CFCF911F910F9108950E94EA0191
:1002A0000E94A90063E080E00E94A5030E94C503AC
:1002B000789460E080E00E94270180E690E00E9450
:1002C0003B0186E082BFC5E0DAE080918E008FE0DE
:1002D0000E94470380918E0080FD03C084E00E944D
:1002E000470380918E006C2F0E946D04911103C012
:1002F00085E00E94470380918E006D2F0E946D045F
:100300009111E3CF86E00E944703DFCF1F920F9247
:100310000FB60F9211242F938F939F9386E082BF85
:1003200080918C0090918D00019690938D00809328
:100330008C00883E934081F480918E008F5F809383
:100340008E0010928D0010928C0080918E008B3068
:1003500019F481E080938E009F918F912F910F90DF
:100360000FBE0F901F9018951F920F920FB60F920D
:1003700011242F933F934F935F936F937F938F93AA
:100380009F93AF93BF93EF93FF9380918F00813042
:1003900081F48DE00E94470310928F0080919000BD
:1003A0008F5F8093900080919000833011F41092C1
:1003B0009000FF91EF91BF91AF919F918F917F91AD
:1003C0006F915F914F913F912F910F900FBE0F90C2
:1003D0001F901895EBE6F0E040E081E090E051914D
:1003E000242F2770342F369536953695513009F4E1
:1003F00043C020F0523009F482C0C5C0323001F150
:10040000333061F1313071F05AB3BC0102C0660F74
:10041000771F2A95E2F79B01352F322B3ABB3BB36E
:1004200020953DC057B3BC0102C0660F771F2A95C7
:10043000E2F79B01352F322B37BB38B320953EC0F6
:1004400054B3BC0102C0660F771F2A95E2F79B01E7
:10045000352F322B34BB35B320953FC051B3BC018F
:1004600002C0660F771F2A95E2F79B01352F322BCA
:1004700031BB32B3209541C0323011F1333081F1BC
:10048000313079F05AB3BC0102C0660F771F2A954C
:10049000E2F79B012095352F32233ABB3BB3232350
:1004A00042C057B3BC0102C0660F771F2A95E2F71E
:1004B0009B012095352F322337BB38B3232343C00C
:1004C00054B3BC0102C0660F771F2A95E2F79B0167
:1004D0002095352F322334BB35B3232325BB53C09E
:1004E00051B3BC0102C0660F771F2A95E2F79B014A
:1004F0002095352F322331BB32B3232343C0323012
:1005000021F1333089F1313081F05AB3BC0102C09E
:10051000660F771F2A95E2F79B01362F309535231A
:100520003ABB3BB3232B2BBB2EC057B3BC0102C03D
:10053000660F771F2A95E2F79B01362F30953523FA
:1005400037BB38B3232B28BB1EC054B3BC0102C039
:10055000660F771F2A95E2F79B01362F30953523DA
:1005600034BB35B3232BBACF51B3BC0102C0660FE5
:10057000771F2A95E2F79B01362F3095352331BB43
:1005800032B3232B22BB4F5F403209F028CF0895AE
:10059000982F97708695869586956130C1F5813044
:1005A00091F028F08230D9F0833029F108954BB3CF
:1005B00021E030E0B90102C0660F771F9A95E2F79B
:1005C000CB01842B38C048B321E030E0B90102C030
:1005D000660F771F9A95E2F7CB01842B3AC045B39B
:1005E00021E030E0B90102C0660F771F9A95E2F76B
:1005F000CB01842B3CC042B321E030E0B90102C002
:10060000660F771F9A95E2F7CB01842B3EC08130AD
:10061000A1F028F08230F9F0833059F108954BB3FE
:1006200021E030E0B90102C0660F771F9A95E2F72A
:10063000CB01809584238BBB089548B321E030E043
:10064000B90102C0660F771F9A95E2F7CB0180953A
:10065000842388BB089545B321E030E0B90102C08E
:10066000660F771F9A95E2F7CB018095842385BBAF
:10067000089542B321E030E0B90102C0660F771F50
:100680009A95E2F7CB018095842382BB0895282FA9
:100690002770869586958695813081F028F0823086
:1006A000B9F08330F9F008953BB381E090E001C0E8
:1006B000880F2A95EAF783278BBB089538B381E02A
:1006C00090E001C0880F2A95EAF7832788BB089538
:1006D00035B381E090E001C0880F2A95EAF78327BF
:1006E00085BB089532B381E090E001C0880F2A9560
:1006F000EAF7832782BB08951F920F920FB60F92DD
:1007000011242F933F934F935F936F937F938F9316
:100710009F93AF93BF93EF93FF93E0919100F0917C
:100720009200309709F00995FF91EF91BF91AF9139
:100730009F918F917F916F915F914F913F912F91F9
:100740000F900FBE0F901F901895813059F038F020
:10075000823071F0833091F483B780640BC083B72B
:100760008F7B02C083B7806483BF83B7877F05C058
:1007700083B78F7B83BF83B7886083BF83B7887F4E
:1007800083BF83B7682B63BF089589B7816089BF32
:1007900008951F920F920FB60F9211242F933F933B
:1007A0004F935F936F937F938F939F93AF93BF9379
:1007B000EF93FF93E0919900F0919A00309709F040
:1007C0000995FF91EF91BF91AF919F918F917F918B
:1007D0006F915F914F913F912F910F900FBE0F90AE
:1007E0001F9018951F920F920FB60F9211242F93FE
:1007F0003F934F935F936F937F938F939F93AF93A9
:10080000BF93EF93FF93E0919700F091980030979A
:1008100009F00995FF91EF91BF91AF919F918F9151
:100820007F916F915F914F913F912F910F900FBEEC
:100830000F901F9018951F920F920FB60F921124D0
:100840002F933F934F935F936F937F938F939F93D8
:10085000AF93BF93EF93FF93E0919500F0919600D3
:10086000309709F00995FF91EF91BF91AF919F915A
:100870008F917F916F915F914F913F912F910F9049
:100880000FBE0F901F9018951F920F920FB60F92E8
:1008900011242F933F934F935F936F937F938F9385
:1008A0009F93AF93BF93EF93FF93E0919300F091E9
:1008B0009400309709F00995FF91EF91BF91AF91A6
:1008C0009F918F917F916F915F914F913F912F9168
:1008D0000F900FBE0F901F901895991B79E004C0E0
:1008E000991F961708F0961B881F7A95C9F780956F
:0608F0000895F894FFCF0B
:1008F60054696D6572206D6F64650001010000002A
:1009060000000000000000000000000000000000E1
:0C091600000000000001020202020200CA
:00000001FF
