:100000000C942A000C948E010C9447000C942A0343
:100010000C9447000C9447000C94D8030C9486036E
:100020000C94AF030C945D030C9447000C940104F2
:100030000C9447000C944B040C9447000C947404EB
:100040000C947F010C9447000C9447000C944700DB
:100050000C94470011241FBECFE5D8E0DEBFCDBF12
:1000600010E0A0E6B0E0EEE3F9E002C005900D92EA
:10007000A239B107D9F720E0A2E9B0E001C01D9292
:10008000A93AB207E1F70E944E010C949D040C942A
:100090000000CF93C82F60E083E00E9476026C2FAF
:1000A000661F6627661F8CE00E947602C6FB6627E5
:1000B00060F98AE00E947602C5FB662760F989E054
:1000C0000E947602C4FB662760F988E00E947602EF
:1000D00061E082E00E9476028FE99FE00197F1F7EC
:1000E00000C0000060E082E00E9476028FE99FE09D
:1000F0000197F1F700C00000C3FB662760F98CE0B0
:100100000E947602C2FB662760F98AE00E947602AE
:10011000C1FB662760F989E00E9476026C2F61704E
:1001200088E00E94760261E082E00E9476028FE918
:100130009FE00197F1F700C0000060E082E00E94BC
:1001400076028FE99FE00197F1F700C00000CF91A0
:1001500008952FEF80E792E0215080409040E1F732
:1001600000C0000082E00E94490088E20E9449002D
:100170008CE00E94490081E00E9449008FE99FE0E5
:100180000197F1F700C0000086E00C944900CF937E
:10019000C82F61E083E00E9476026C2F661F6627FD
:1001A000661F8CE00E947602C6FB662760F98AE033
:1001B0000E947602C5FB662760F989E00E947602FC
:1001C000C4FB662760F988E00E94760261E082E065
:1001D0000E9476028FE99FE00197F1F700C00000CE
:1001E00060E082E00E9476028FE99FE00197F1F7DC
:1001F00000C00000C3FB662760F98CE00E94760215
:10020000C2FB662760F98AE00E947602C1FB66277E
:1002100060F989E00E9476026C2F617088E00E948C
:10022000760261E082E00E9476028FE99FE001970A
:10023000F1F700C0000060E082E00E9476028FE9E2
:100240009FE00197F1F700C00000CF910895982F2B
:10025000862F911102C080580BC0913011F4805448
:1002600007C0923011F48C5603C0933019F48C52AD
:100270000C94490008950F931F93CF938C01C0E015
:10028000F801EC0FF11D8081882321F00E94C70046
:10029000CF5FF6CFCF911F910F9108950E949801E3
:1002A0000E94A9000E9453030E9449040E9447042F
:1002B000789460E080E00E94270181E690E00E944F
:1002C0003B0184E50E945803C82F811102C084E0DD
:1002D0000AC0823511F485E006C086E00E94F5026E
:1002E000C43519F48FE00E94F5022FEF89EF90E0FA
:1002F000215080409040E1F700C00000E2CF1F9203
:100300000F920FB60F9211248F9381E08093920089
:100310008F910F900FBE0F901F9018951F920F9204
:100320000FB60F9211240F900FBE0F901F901895CB
:10033000E1E7F0E040E081E090E05191242F277068
:10034000342F369536953695513009F443C020F058
:10035000523009F482C0C5C0323001F1333061F14E
:10036000313071F05AB3BC0102C0660F771F2A9575
:10037000E2F79B01352F322B3ABB3BB320953DC0B2
:1003800057B3BC0102C0660F771F2A95E2F79B01A5
:10039000352F322B37BB38B320953EC054B3BC0148
:1003A00002C0660F771F2A95E2F79B01352F322B8B
:1003B00034BB35B320953FC051B3BC0102C0660FBA
:1003C000771F2A95E2F79B01352F322B31BB32B3D1
:1003D000209541C0323011F1333081F1313079F064
:1003E0005AB3BC0102C0660F771F2A95E2F79B0142
:1003F0002095352F32233ABB3BB3232342C057B35A
:10040000BC0102C0660F771F2A95E2F79B01209579
:10041000352F322337BB38B3232343C054B3BC0139
:1004200002C0660F771F2A95E2F79B012095352FB2
:10043000322334BB35B3232325BB53C051B3BC0196
:1004400002C0660F771F2A95E2F79B012095352F92
:10045000322331BB32B3232343C0323021F1333056
:1004600089F1313081F05AB3BC0102C0660F771FA9
:100470002A95E2F79B01362F309535233ABB3BB3E3
:10048000232B2BBB2EC057B3BC0102C0660F771FB6
:100490002A95E2F79B01362F3095352337BB38B3C9
:1004A000232B28BB1EC054B3BC0102C0660F771FAC
:1004B0002A95E2F79B01362F3095352334BB35B3AF
:1004C000232BBACF51B3BC0102C0660F771F2A9508
:1004D000E2F79B01362F3095352331BB32B3232B06
:1004E00022BB4F5F403209F028CF0895982F9770B4
:1004F0008695869586956130C1F5813091F028F01A
:100500008230D9F0833029F108954BB321E030E0F7
:10051000B90102C0660F771F9A95E2F7CB01842BD1
:1005200038C048B321E030E0B90102C0660F771F40
:100530009A95E2F7CB01842B3AC045B321E030E035
:10054000B90102C0660F771F9A95E2F7CB01842BA1
:100550003CC042B321E030E0B90102C0660F771F12
:100560009A95E2F7CB01842B3EC08130A1F028F0B0
:100570008230F9F0833059F108954BB321E030E037
:10058000B90102C0660F771F9A95E2F7CB018095FB
:1005900084238BBB089548B321E030E0B90102C049
:1005A000660F771F9A95E2F7CB018095842388BB6D
:1005B000089545B321E030E0B90102C0660F771F0E
:1005C0009A95E2F7CB018095842385BB089542B3C9
:1005D00021E030E0B90102C0660F771F9A95E2F77B
:1005E000CB018095842382BB0895282F27708695A0
:1005F00086958695813081F028F08230B9F083307D
:10060000F9F008953BB381E090E001C0880F2A958E
:10061000EAF783278BBB089538B381E090E001C0EF
:10062000880F2A95EAF7832788BB089535B381E0C0
:1006300090E001C0880F2A95EAF7832785BB0895CB
:1006400032B381E090E001C0880F2A95EAF7832752
:1006500082BB08951F920F920FB60F9211242F9311
:100660003F934F935F936F937F938F939F93AF933A
:10067000BF93EF93FF93E0919300F0919400309734
:1006800009F00995FF91EF91BF91AF919F918F91E3
:100690007F916F915F914F913F912F910F900FBE7E
:1006A0000F901F9018956C9A6898699A6E9A0895A1
:1006B0008FB9779BFECF8FB108951F920F920FB61F
:1006C0000F9211242F933F934F935F936F937F93D8
:1006D0008F939F93AF93BF93EF93FF93E0919F000E
:1006E000F091A000309709F00995FF91EF91BF912B
:1006F000AF919F918F917F916F915F914F913F91BA
:100700002F910F900FBE0F901F9018951F920F9270
:100710000FB60F9211242F933F934F935F936F93D4
:100720007F938F939F93AF93BF93EF93FF93E0914A
:100730009D00F0919E00309709F00995FF91EF918F
:10074000BF91AF919F918F917F916F915F914F91E9
:100750003F912F910F900FBE0F901F9018951F92F1
:100760000F920FB60F9211242F933F934F935F93E5
:100770006F937F938F939F93AF93BF93EF93FF9369
:10078000E0919B00F0919C00309709F00995FF9152
:10079000EF91BF91AF919F918F917F916F915F91F9
:1007A0004F913F912F910F900FBE0F901F90189572
:1007B0001F920F920FB60F9211242F933F934F93D6
:1007C0005F936F937F938F939F93AF93BF93EF93B9
:1007D000FF93E0919900F0919A00309709F0099504
:1007E000FF91EF91BF91AF919F918F917F916F9109
:1007F0005F914F913F912F910F900FBE0F901F90DF
:1008000018951F920F920FB60F9211244F935F937A
:100810006F937F938F939F93AF93BF9386E082BF35
:100820008091950090919600A0919700B0919800CA
:100830000196A11DB11D8093950090939600A09301
:100840009700B09398004091A1005091A200609150
:10085000A3007091A40084179507A607B70751F469
:1008600010926000109295001092960010929700DE
:1008700010929800BF91AF919F918F917F916F914E
:100880005F914F910F900FBE0F901F901895579A40
:100890000895569A08951F920F920FB60F92112441
:1008A0002F933F934F935F936F937F938F939F9378
:1008B000AF93BF93EF93FF93E091A700F091A8004F
:1008C000309709F00995FF91EF91BF91AF919F91FA
:1008D0008F917F916F915F914F913F912F910F90E9
:1008E0000FBE0F901F9018951F920F920FB60F9288
:1008F00011242F933F934F935F936F937F938F9325
:100900009F93AF93BF93EF93FF93E091A500F09176
:10091000A600309709F00995FF91EF91BF91AF9133
:100920009F918F917F916F915F914F913F912F9107
:0E0930000F900FBE0F901F901895F894FFCFF8
:10093E0001535049205452414E534D49545445523F
:10094E000000000000000000000000000001000197
:10095E000000000000000000000200010000020282
:02096E00020085
:00000001FF
