:100000000C942A000C943F000C943F000C943F0089
:100010000C943F000C943F000C943F000C943F0064
:100020000C943F000C943F000C943F000C943F0054
:100030000C943F000C943F000C943F000C943F0044
:100040000C943F000C943F000C943F000C943F0034
:100050000C943F0011241FBECFE5D8E0DEBFCDBF1A
:1000600010E0A0E6B0E0E0E8F6E002C005900D92F6
:10007000A839B107D9F70E94A5010C943E030C944E
:100080000000CF93C5E161E08C2F0E94A202C15015
:10009000C131C9F7CF910895DF92EF92FF920F938C
:1000A0001F93CF93DF9300E610E0D5E184E5D82ECF
:1000B00060E08D2F0E94A202CFE1E12CF12C8C2F69
:1000C0000E942103811122C08E2D833080F4F8011B
:1000D000EE0DFF1DD0808FE39CE90197F1F700C082
:1000E00000008C2F0E9421038823D9F30FC0833096
:1000F00069F0F801D3808FE39CE90197F1F700C024
:1001000000008C2F0E9421038823D9F39FEFE91A66
:10011000F90AC150CA3199F661E08D2F0E94A202FE
:10012000D1500C5F1F4FD13119F68D2DDF91CF913A
:100130001F910F91FF90EF90DF900895CF93C82FFC
:1001400060E083E00E94A2026C2F661F6627661F94
:100150008CE00E94A202C6FB662760F98AE00E943A
:10016000A202C5FB662760F989E00E94A202C4FBD7
:10017000662760F988E00E94A20261E082E00E94A6
:10018000A2028FE99FE00197F1F700C0000060E054
:1001900082E00E94A2028FE99FE00197F1F700C080
:1001A0000000C3FB662760F98CE00E94A202C2FB3C
:1001B000662760F98AE00E94A202C1FB662760F907
:1001C00089E00E94A2026C2F617088E00E94A20266
:1001D00061E082E00E94A2028FE99FE00197F1F7BF
:1001E00000C0000060E082E00E94A2028FE99FE070
:1001F0000197F1F700C00000CF9108952FEF80E73D
:1002000092E0215080409040E1F700C0000082E081
:100210000E949E0088E20E949E008CE00E949E0048
:1002200081E00E949E008FE99FE00197F1F700C0F6
:10023000000086E00C949E00CF93C82F61E083E01D
:100240000E94A2026C2F661F6627661F8CE00E9428
:10025000A202C6FB662760F98AE00E94A202C5FBE3
:10026000662760F989E00E94A202C4FB662760F954
:1002700088E00E94A20261E082E00E94A2028FE96F
:100280009FE00197F1F700C0000060E082E00E946B
:10029000A2028FE99FE00197F1F700C00000C3FBC5
:1002A000662760F98CE00E94A202C2FB662760F913
:1002B0008AE00E94A202C1FB662760F989E00E94E1
:1002C000A2026C2F617088E00E94A20261E082E0CD
:1002D0000E94A2028FE99FE00197F1F700C00000A1
:1002E00060E082E00E94A2028FE99FE00197F1F7AF
:1002F00000C00000CF910895982F862F911102C061
:1003000080580BC0913011F4805407C0923011F422
:100310008C5603C0933019F48C520C949E000895AF
:100320000C941C010F931F93CF938C01C0E0F80134
:10033000EC0FF11D8081882321F00E941C01CF5F0A
:10034000F6CFCF911F910F9108950E94C4010E9492
:10035000FE000E94410060E080E00E947C0180E796
:1003600090E00E94920181E40E9490018AE50E943F
:10037000900160E081E00E947C010E944C00843585
:10038000E1F30E949001F9CFE7E7F0E040E081E07F
:1003900090E05191242F2770342F3695369536955D
:1003A000513009F443C020F0523009F482C0C5C076
:1003B000323001F1333061F1313071F05AB3BC01A8
:1003C00002C0660F771F2A95E2F79B01352F322B6B
:1003D0003ABB3BB320953DC057B3BC0102C0660F8A
:1003E000771F2A95E2F79B01352F322B37BB38B3A5
:1003F00020953EC054B3BC0102C0660F771F2A95FA
:10040000E2F79B01352F322B34BB35B320953FC02B
:1004100051B3BC0102C0660F771F2A95E2F79B011A
:10042000352F322B31BB32B3209541C0323011F120
:10043000333081F1313079F05AB3BC0102C0660F1C
:10044000771F2A95E2F79B012095352F32233ABB7F
:100450003BB3232342C057B3BC0102C0660F771FD2
:100460002A95E2F79B012095352F322337BB38B30D
:10047000232343C054B3BC0102C0660F771F2A95E3
:10048000E2F79B012095352F322334BB35B323236C
:1004900025BB53C051B3BC0102C0660F771F2A951C
:1004A000E2F79B012095352F322331BB32B3232352
:1004B00043C0323021F1333089F1313081F05AB309
:1004C000BC0102C0660F771F2A95E2F79B01362F09
:1004D000309535233ABB3BB3232B2BBB2EC057B3F0
:1004E000BC0102C0660F771F2A95E2F79B01362FE9
:1004F0003095352337BB38B3232B28BB1EC054B3EC
:10050000BC0102C0660F771F2A95E2F79B01362FC8
:100510003095352334BB35B3232BBACF51B3BC014F
:1005200002C0660F771F2A95E2F79B01362F3095A0
:10053000352331BB32B3232B22BB4F5F403209F04E
:1005400028CF0895982F9770869586958695613067
:10055000C1F5813091F028F08230D9F0833029F153
:1005600008954BB321E030E0B90102C0660F771F58
:100570009A95E2F7CB01842B38C048B321E030E0F4
:10058000B90102C0660F771F9A95E2F7CB01842B61
:100590003AC045B321E030E0B90102C0660F771FD1
:1005A0009A95E2F7CB01842B3CC042B321E030E0C6
:1005B000B90102C0660F771F9A95E2F7CB01842B31
:1005C0003EC08130A1F028F08230F9F0833059F13B
:1005D00008954BB321E030E0B90102C0660F771FE8
:1005E0009A95E2F7CB01809584238BBB089548B39D
:1005F00021E030E0B90102C0660F771F9A95E2F75B
:10060000CB018095842388BB089545B321E030E079
:10061000B90102C0660F771F9A95E2F7CB0180956A
:10062000842385BB089542B321E030E0B90102C0C4
:10063000660F771F9A95E2F7CB018095842382BBE2
:100640000895282F2770869586958695813049F0E4
:1006500030F0823041F0833079F480B305C089B343
:1006600003C086B301C083B390E002C0959587951F
:100670002A95E2F78170089580E00895F894FFCFFD
:100680003738392D3435362A3132332F43303D2B2C
:100690004B6579426164000000000000000000002A
:1006A000000000000000000000000000000000004A
:0806B000000002020202020038
:00000001FF
