S011000047395F526F756E64362E73726563F6
S11300000C9432000C942A020C944F000C94960425
S11300100C944F000C944F000C944F000C944F0020
S11300200C944F000C944F000C944F000C944F0010
S11300300C944F000C944F000C944F000C944F0000
S11300400C941B020C944F000C944F000C944F0022
S11300500C944F007D027F02840286028E0290027D
S11300609502970211241FBECFE5D8E0DEBFCDBFB5
S113007010E0A0E6B0E0E0E1FAE002C005900D92E5
S1130080A239B107D9F720E0A2E9B0E001C01D927E
S1130090A539B207E1F70E94E8010C9406050C9417
S11300A00000CF93C82F60E083E00E948C036C2F84
S11300B0661F6627661F8CE00E948C03C6FB6627BA
S11300C060F98AE00E948C03C5FB662760F989E029
S11300D00E948C03C4FB662760F988E00E948C03AD
S11300E061E082E00E948C038FE99FE00197F1F7C1
S11300F000C0000060E082E00E948C038FE99FE072
S11301000197F1F700C00000C3FB662760F98CE09B
S11301100E948C03C2FB662760F98AE00E948C036C
S1130120C1FB662760F989E00E948C036C2F617023
S113013088E00E948C0361E082E00E948C038FE9D6
S11301409FE00197F1F700C0000060E082E00E94A8
S11301508C038FE99FE00197F1F700C00000CF9175
S113016008952FEF80E792E0215080409040E1F71E
S113017000C0000082E00E94510088E20E94510009
S11301808CE00E94510081E00E9451008FE99FE0C1
S11301900197F1F700C0000086E00C945100CF9362
S11301A0C82F61E083E00E948C036C2F661F6627D2
S11301B0661F8CE00E948C03C6FB662760F98AE008
S11301C00E948C03C5FB662760F989E00E948C03BA
S11301D0C4FB662760F988E00E948C0361E082E03A
S11301E00E948C038FE99FE00197F1F700C00000A3
S11301F060E082E00E948C038FE99FE00197F1F7B1
S113020000C00000C3FB662760F98CE00E948C03E9
S1130210C2FB662760F98AE00E948C03C1FB662753
S113022060F989E00E948C036C2F617088E00E9461
S11302308C0361E082E00E948C038FE99FE00197C8
S1130240F1F700C0000060E082E00E948C038FE9B7
S11302509FE00197F1F700C00000CF910895982F17
S1130260862F911102C080580BC0913011F4805434
S113027007C0923011F48C5603C0933019F48C5299
S11302800C94510008950F931F93CF938C01C0E0F9
S1130290F801EC0FF11D8081882321F00E94CF002A
S11302A0CF5FF6CFCF911F910F91089581E00E9407
S11302B051008FE99FE00197F1F700C00000089515
S11302C04F925F926F927F92AF92BF92CF92DF92E2
S11302D0EF92FF921F93CF93DF93CDB7DEB764976E
S11302E00FB6F894DEBF0FBECDBF6B017C010E9438
S11302F05601C114D104E104F104C1F40E94560171
S113030080E364960FB6F894DEBF0FBECDBFDF91D5
S1130310CF911F91FF90EF90DF90CF90BF90AF905F
S11303207F906F905F904F900C94CF00F7FE0BC0BE
S11303308DE20E94CF00F094E094D094C094C11C4C
S1130340D11CE11CF11C10E09AE0492E512C612CC7
S1130350712CAA24A394B12CAC0EBD1EA10EB11C09
S1130360C701B601A30192010E94BF04605DF501BB
S1130370608381E0810F69017A01C114D104E10431
S1130380F10411F0182FE5CFF12EF7FC0DC0E1E0D8
S1130390F0E0EC0FFD1FEF0DF11DF7FCFA958081E5
S11303A00E94CF00FA94F1CF64960FB6F894DEBFA2
S11303B00FBECDBFDF91CF911F91FF90EF90DF90E3
S11303C0CF90BF90AF907F906F905F904F900895C3
S11303D00E94AE020E94B10066E081E00E944F02DA
S11303E060E082E00E94640263E080E00E945004C6
S11303F080E00E944004789460E080E00E942F0135
S113040080E690E00E94430160E081E00E942F01B9
S1130410809192008130E1F780E00E94A102BC014A
S113042080E090E00E9460018EE690E00E9443012B
S113043010929200EDCF1F920F920FB60F921124DB
S11304408F9381E0809392008F910F900FBE0F9055
S11304501F9018951F920F920FB60F9211242F938D
S11304603F934F935F936F937F938F939F93AF9338
S1130470BF93EF93FF938FE00E940B04FF91EF91E2
S1130480BF91AF919F918F917F916F915F914F91A8
S11304903F912F910F900FBE0F901F9018958130B0
S11304A041F028F0823039F43E9A3F9A04C03E98D5
S11304B001C03E9A3F9886B1887F86B986B167703D
S11304C0682B66B9379A0895E82F87B1807E87B97B
S11304D087B16F71682B67B9379A329A319A309A1B
S11304E0359A339A8E2F90E08830910540F5FC01BF
S11304F0E65DFF4F80B70C94DE048F7D01C08062FF
S113050080BF80B78F7B06C08F7D01C0806280BFB3
S113051080B7806480BF80B78F7710C08F7D01C0A3
S1130520806280BF80B78F7B06C08F7D01C08062F0
S113053080BF80B7806480BF80B7806880BF369AF0
S1130540089597B1907E97B997B18F71982B97B909
S1130550369A3699FECF84B195B10895E1E7F0E07B
S113056040E081E090E05191242F2770342F36959C
S113057036953695513009F443C020F0523009F4D1
S113058082C0C5C0323001F1333061F1313071F0D5
S11305905AB3BC0102C0660F771F2A95E2F79B018C
S11305A0352F322B3ABB3BB320953DC057B3BC012A
S11305B002C0660F771F2A95E2F79B01352F322B75
S11305C037BB38B320953EC054B3BC0102C0660F9C
S11305D0771F2A95E2F79B01352F322B34BB35B3B5
S11305E020953FC051B3BC0102C0660F771F2A9506
S11305F0E2F79B01352F322B31BB32B3209541C03A
S1130600323011F1333081F1313079F05AB3BC0119
S113061002C0660F771F2A95E2F79B012095352FBC
S113062032233ABB3BB3232342C057B3BC0102C0BD
S1130630660F771F2A95E2F79B012095352F322309
S113064037BB38B3232343C054B3BC0102C0660F85
S1130650771F2A95E2F79B012095352F322334BB6F
S113066035B3232325BB53C051B3BC0102C0660F6D
S1130670771F2A95E2F79B012095352F322331BB52
S113068032B3232343C0323021F1333089F1313086
S113069081F05AB3BC0102C0660F771F2A95E2F7B6
S11306A09B01362F309535233ABB3BB3232B2BBB11
S11306B02EC057B3BC0102C0660F771F2A95E2F71C
S11306C09B01362F3095352337BB38B3232B28BBFA
S11306D01EC054B3BC0102C0660F771F2A95E2F70F
S11306E09B01362F3095352334BB35B3232BBACF3A
S11306F051B3BC0102C0660F771F2A95E2F79B0134
S1130700362F3095352331BB32B3232B22BB4F5FB9
S1130710403209F028CF0895982F977086958695D2
S113072086956130C1F5813091F028F08230D9F09E
S1130730833029F108954BB321E030E0B90102C0C0
S1130740660F771F9A95E2F7CB01842B38C048B324
S113075021E030E0B90102C0660F771F9A95E2F7F5
S1130760CB01842B3AC045B321E030E0B90102C08B
S1130770660F771F9A95E2F7CB01842B3CC042B3F6
S113078021E030E0B90102C0660F771F9A95E2F7C5
S1130790CB01842B3EC08130A1F028F08230F9F0E7
S11307A0833059F108954BB321E030E0B90102C020
S11307B0660F771F9A95E2F7CB01809584238BBB54
S11307C0089548B321E030E0B90102C0660F771FF5
S11307D09A95E2F7CB018095842388BB089545B3AD
S11307E021E030E0B90102C0660F771F9A95E2F765
S11307F0CB018095842385BB089542B321E030E08A
S1130800B90102C0660F771F9A95E2F7CB01809574
S1130810842382BB0895282F277086958695869514
S1130820813081F028F08230B9F08330F9F00895F6
S11308303BB381E090E001C0880F2A95EAF7832753
S11308408BBB089538B381E090E001C0880F2A95EE
S1130850EAF7832788BB089535B381E090E001C0AF
S1130860880F2A95EAF7832785BB089532B381E080
S113087090E001C0880F2A95EAF7832782BB089588
S1130880813039F018F0823039F008958BB78064E4
S113089005C08BB7806802C08BB780628BBF089598
S11308A08130F1F018F08230B1F10895613049F0EF
S11308B028F0623061F0633069F0089585B78E7F67
S11308C002C085B7816085BF85B78D7F22C085B79B
S11308D08E7F02C085B7816085BF85B7826019C0ED
S11308E0613049F028F0623061F0633069F00895B6
S11308F085B78B7F02C085B7846085BF85B7877F46
S113090008C085B78B7F02C085B7846085BF85B773
S1130910886085BF0895623029F0633019F484B784
S1130920806402C084B78F7B84BF08951F920F92A6
S11309300FB60F9211242F933F934F935F936F93AE
S11309407F938F939F93AF93BF93EF93FF93E09124
S11309509300F0919400309709F00995FF91EF917D
S1130960BF91AF919F918F917F916F915F914F91C3
S11309703F912F910F900FBE0F901F901895052E49
S113098097FB1EF400940E94D60457FD07D00E94E2
S1130990E40407FC03D04EF40C94D604509540951F
S11309A0309521953F4F4F4F5F4F08959095809517
S11309B0709561957F4F8F4F9F4F0895EE0FFF1FE6
S11309C00590F491E02D0994A1E21A2EAA1BBB1BF9
S11309D0FD010DC0AA1FBB1FEE1FFF1FA217B30707
S11309E0E407F50720F0A21BB30BE40BF50B661F1D
S11309F0771F881F991F1A9469F7609570958095E1
S1130A0090959B01AC01BD01CF010895F894FFCFEF
S1130A1041444320496E7465727275707400696E46
S1130A2000010000000000000000000000000000C1
S1130A3000000000000000000000000102020202A9
S1050A400200AE
S9030000FC
