:100000000C942A000C943F000C943F000C943F0089
:100010000C943F000C943F000C943F000C943F0064
:100020000C943F000C943F000C943F000C943F0054
:100030000C943F000C943F000C943F000C943F0044
:100040000C943F000C943F000C943F000C943F0034
:100050000C943F0011241FBECFE5D8E0DEBFCDBF1A
:1000600010E0A0E6B0E0E8E7F5E002C005900D92F0
:10007000AA38B107D9F70E9412010C94BA020C9465
:100080000000CF92DF92EF92FF920F931F93CF93D6
:10009000DF93CDB7DEB72A970FB6F894DEBF0FBE59
:1000A000CDBF7C018AE0E0E6F0E0DE011196019030
:1000B0000D928A95E1F761E083E00E94060261E01B
:1000C00082E00E94060261E08DE00E94060261E08B
:1000D0008EE00E94060260E083E00E94060281E05A
:1000E0000E949502282F0AE010E0C701B8010E9483
:1000F000A6026B01E1E0F0E0EC0FFD1FE80FF91F35
:10010000622F687E9081692B81E00E9485028FE3D7
:100110009FE10197F1F700C0000061E083E00E94D9
:10012000060260E082E00E94060281E00E949502E1
:10013000282FC601B8010E94A602E1E0F0E0EC0F12
:10014000FD1FE80FF91F622F687E9081692B81E007
:100150000E9485028FE39FE10197F1F700C0000044
:1001600061E082E00E94060260E08DE00E940602EB
:1001700081E00E949502282FC70164E670E00E948A
:10018000A602CB01B8010E94A602E1E0F0E0EC0F6C
:10019000FD1FE80FF91F622F687E9081692B81E0B7
:1001A0000E9485028FE39FE10197F1F700C00000F4
:1001B00061E08DE00E94060260E08EE00E9406028F
:1001C00081E00E949502282FC70168EE73E00E942B
:1001D000A602CB01B8010E94A602E1E0F0E0EC0F1C
:1001E000FD1FE80FF91F622F687E9081692B81E067
:1001F0000E9485028FE39FE10197F1F700C00000A4
:1002000061E08EE02A960FB6F894DEBF0FBECDBF38
:10021000DF91CF911F910F91FF90EF90DF90CF90E2
:100220000C9406020E942801C0E0D0E015E0CE0147
:100230000E9441008FE19EE40197F1F700C00000A9
:100240001150A9F72196C03197E2D90779F7ECCF81
:10025000EAE6F0E040E081E090E05191242F277041
:10026000342F369536953695513009F443C020F039
:10027000523009F482C0C5C0323001F1333061F12F
:10028000313071F05AB3BC0102C0660F771F2A9556
:10029000E2F79B01352F322B3ABB3BB320953DC093
:1002A00057B3BC0102C0660F771F2A95E2F79B0186
:1002B000352F322B37BB38B320953EC054B3BC0129
:1002C00002C0660F771F2A95E2F79B01352F322B6C
:1002D00034BB35B320953FC051B3BC0102C0660F9B
:1002E000771F2A95E2F79B01352F322B31BB32B3B2
:1002F000209541C0323011F1333081F1313079F045
:100300005AB3BC0102C0660F771F2A95E2F79B0122
:100310002095352F32233ABB3BB3232342C057B33A
:10032000BC0102C0660F771F2A95E2F79B0120955A
:10033000352F322337BB38B3232343C054B3BC011A
:1003400002C0660F771F2A95E2F79B012095352F93
:10035000322334BB35B3232325BB53C051B3BC0177
:1003600002C0660F771F2A95E2F79B012095352F73
:10037000322331BB32B3232343C0323021F1333037
:1003800089F1313081F05AB3BC0102C0660F771F8A
:100390002A95E2F79B01362F309535233ABB3BB3C4
:1003A000232B2BBB2EC057B3BC0102C0660F771F97
:1003B0002A95E2F79B01362F3095352337BB38B3AA
:1003C000232B28BB1EC054B3BC0102C0660F771F8D
:1003D0002A95E2F79B01362F3095352334BB35B390
:1003E000232BBACF51B3BC0102C0660F771F2A95E9
:1003F000E2F79B01362F3095352331BB32B3232BE7
:1004000022BB4F5F403209F028CF0895982F977094
:100410008695869586956130C1F5813091F028F0FA
:100420008230D9F0833029F108954BB321E030E0D8
:10043000B90102C0660F771F9A95E2F7CB01842BB2
:1004400038C048B321E030E0B90102C0660F771F21
:100450009A95E2F7CB01842B3AC045B321E030E016
:10046000B90102C0660F771F9A95E2F7CB01842B82
:100470003CC042B321E030E0B90102C0660F771FF3
:100480009A95E2F7CB01842B3EC08130A1F028F091
:100490008230F9F0833059F108954BB321E030E018
:1004A000B90102C0660F771F9A95E2F7CB018095DC
:1004B00084238BBB089548B321E030E0B90102C02A
:1004C000660F771F9A95E2F7CB018095842388BB4E
:1004D000089545B321E030E0B90102C0660F771FEF
:1004E0009A95E2F7CB018095842385BB089542B3AA
:1004F00021E030E0B90102C0660F771F9A95E2F75C
:10050000CB018095842382BB0895813041F028F08F
:10051000823039F0833039F008956BBB089568BBA1
:10052000089565BB089562BB0895813049F030F0AD
:10053000823041F0833041F480B3089589B3089547
:1005400086B3089583B3089580E00895AA1BBB1B6A
:1005500051E107C0AA1FBB1FA617B70710F0A61BC3
:10056000B70B881F991F5A95A9F780959095BC01E4
:08057000CD010895F894FFCFBE
:100578000001020304050607101100000000000036
:100588000000000000000000000000000000000063
:0A0598000000000000000000000059
:00000001FF
