S011000047395F526F756E64362E73726563F6
S11300000C942A000C944A020C9447000C940C049F
S11300100C9447000C9447000C94EB040C94990442
S11300200C94C2040C9470040C9447000C941405B2
S11300300C9447000C9447000C9447000C94470020
S11300400C943B020C9447000C9447000C9447001A
S11300500C94470011241FBECFE5D8E0DEBFCDBF0E
S113006010E0A0E6B0E0E0E1FBE002C005900D92F4
S1130070AA38B107D9F720E0AAE8B0E001C01D9280
S1130080AE39B207E1F70E9459010C9486050C942D
S11300900000CF93C5E161E08C2F0E945803C1504A
S11300A0C131C9F7CF910895CF93C82F60E083E0A1
S11300B00E9458036C2F661F6627661F8CE00E94FF
S11300C05803C6FB662760F98AE00E945803C5FB03
S11300D0662760F989E00E945803C4FB662760F92B
S11300E088E00E94580361E082E00E9458038FE98F
S11300F09FE00197F1F700C0000060E082E00E94F9
S113010058038FE99FE00197F1F700C00000C3FB9B
S1130110662760F98CE00E945803C2FB662760F9E9
S11301208AE00E945803C1FB662760F989E00E94B7
S113013058036C2F617088E00E94580361E082E0EC
S11301400E9458038FE99FE00197F1F700C0000077
S113015060E082E00E9458038FE99FE00197F1F785
S113016000C00000CF9108952FEF80E792E0215066
S113017080409040E1F700C0000082E00E945400FB
S113018088E20E9454008CE00E94540081E00E94A6
S113019054008FE99FE00197F1F700C0000086E06A
S11301A00C945400CF93C82F61E083E00E9458035D
S11301B06C2F661F6627661F8CE00E945803C6FBDF
S11301C0662760F98AE00E945803C5FB662760F938
S11301D089E00E945803C4FB662760F988E00E9406
S11301E0580361E082E00E9458038FE99FE0019781
S11301F0F1F700C0000060E082E00E9458038FE93C
S11302009FE00197F1F700C00000C3FB662760F987
S11302108CE00E945803C2FB662760F98AE00E94C2
S11302205803C1FB662760F989E00E9458036C2FCC
S1130230617088E00E94580361E082E00E945803E4
S11302408FE99FE00197F1F700C0000060E082E0D1
S11302500E9458038FE99FE00197F1F700C0000066
S1130260CF910895982F862F911102C080580BC00A
S1130270913011F4805407C0923011F48C5603C0AD
S1130280933019F48C520C94540008950F931F93D7
S1130290CF938C01C0E0F801EC0FF11D808188231D
S11302A021F00E94D200CF5FF6CFCF911F910F9122
S11302B008950E947A020E94B4000E9449000E949C
S11302C05A05789460E080E00E94320181E690E073
S11302D00E9446018AE090E00E9461052FEF86E7C4
S11302E091E0215080409040E1F700C0000084E696
S11302F090E00E9461052FEF8DEE92E02150804046
S11303009040E1F700C0000088E290E00E9461059F
S11303102FEF83EF91E0215080409040E1F700C03F
S113032000008AE590E00E9461052FEF84E694E0E6
S1130330215080409040E1F700C000008EE190E041
S11303400E9461052FEF86E791E0215080409040A4
S1130350E1F700C0000084E690E00E9461052FEF01
S113036081EE94E0215080409040E1F700C000000D
S113037089E190E00E9461052FEF80E792E021502F
S113038080409040E1F700C0000084E690E00E94C5
S113039061052FEF81EE94E0215080409040E1F719
S11303A000C000008AE090E00E9461052FEF86E71C
S11303B091E0215080409040E1F700C0000086E4C5
S11303C090E00E9461052FEF83EC99E0215080407A
S11303D09040E1F700C0000088E290E00E946105CF
S11303E02FEF81EE94E0215080409040E1F700C06F
S11303F0000084E690E00E9461052FEF84E39CE016
S1130400215080409040E1F700C000008EE190E070
S11304100E9461052FEF86E791E0215080409040D3
S1130420E1F700C0000084E690E00E9461052FEF30
S113043081EE94E0215080409040E1F700C000003C
S113044089E190E00E9461052FEF82E597E0215059
S113045080409040E1F700C0000084E690E00E94F4
S113046061052FEF83EC99E0215080409040E1F743
S113047000C000002FCF1F920F920FB60F921124CD
S11304808F9381E080938B008F910F900FBE0F901C
S11304901F9018951F920F920FB60F9211242F934D
S11304A03F934F935F936F937F938F939F93AF93F8
S11304B0BF93EF93FF9380918A008F5F80938A00AC
S11304C08EE00E94D70380918A00823011F410924A
S11304D08A00FF91EF91BF91AF919F918F917F918E
S11304E06F915F914F913F912F910F900FBE0F909D
S11304F01F901895EAE6F0E040E081E090E0519129
S1130500242F2770342F369536953695513009F4BB
S113051043C020F0523009F482C0C5C0323001F12A
S1130520333061F1313071F05AB3BC0102C0660F4F
S1130530771F2A95E2F79B01352F322B3ABB3BB349
S113054020953DC057B3BC0102C0660F771F2A95A2
S1130550E2F79B01352F322B37BB38B320953EC0D1
S113056054B3BC0102C0660F771F2A95E2F79B01C2
S1130570352F322B34BB35B320953FC051B3BC016A
S113058002C0660F771F2A95E2F79B01352F322BA5
S113059031BB32B3209541C0323011F1333081F197
S11305A0313079F05AB3BC0102C0660F771F2A9527
S11305B0E2F79B012095352F32233ABB3BB323232B
S11305C042C057B3BC0102C0660F771F2A95E2F7F9
S11305D09B012095352F322337BB38B3232343C0E7
S11305E054B3BC0102C0660F771F2A95E2F79B0142
S11305F02095352F322334BB35B3232325BB53C079
S113060051B3BC0102C0660F771F2A95E2F79B0124
S11306102095352F322331BB32B3232343C03230EC
S113062021F1333089F1313081F05AB3BC0102C079
S1130630660F771F2A95E2F79B01362F30953523F5
S11306403ABB3BB3232B2BBB2EC057B3BC0102C018
S1130650660F771F2A95E2F79B01362F30953523D5
S113066037BB38B3232B28BB1EC054B3BC0102C014
S1130670660F771F2A95E2F79B01362F30953523B5
S113068034BB35B3232BBACF51B3BC0102C0660FC0
S1130690771F2A95E2F79B01362F3095352331BB1E
S11306A032B3232B22BB4F5F403209F028CF089589
S11306B0982F97708695869586956130C1F581301F
S11306C091F028F08230D9F0833029F108954BB3AA
S11306D021E030E0B90102C0660F771F9A95E2F776
S11306E0CB01842B38C048B321E030E0B90102C00B
S11306F0660F771F9A95E2F7CB01842B3AC045B376
S113070021E030E0B90102C0660F771F9A95E2F745
S1130710CB01842B3CC042B321E030E0B90102C0DC
S1130720660F771F9A95E2F7CB01842B3EC0813088
S1130730A1F028F08230F9F0833059F108954BB3D9
S113074021E030E0B90102C0660F771F9A95E2F705
S1130750CB01809584238BBB089548B321E030E01E
S1130760B90102C0660F771F9A95E2F7CB01809515
S1130770842388BB089545B321E030E0B90102C069
S1130780660F771F9A95E2F7CB018095842385BB8A
S1130790089542B321E030E0B90102C0660F771F2B
S11307A09A95E2F7CB018095842382BB0895282F84
S11307B02770869586958695813081F028F0823061
S11307C0B9F08330F9F008953BB381E090E001C0C3
S11307D0880F2A95EAF783278BBB089538B381E005
S11307E090E001C0880F2A95EAF7832788BB089513
S11307F035B381E090E001C0880F2A95EAF783279A
S113080085BB089532B381E090E001C0880F2A953A
S1130810EAF7832782BB08951F920F920FB60F92B7
S113082011242F933F934F935F936F937F938F93F1
S11308309F93AF93BF93EF93FF93E0918C00F0915C
S11308408D00309709F00995FF91EF91BF91AF9119
S11308509F918F917F916F915F914F913F912F91D4
S11308600F900FBE0F901F901895813059F038F0FB
S1130870823071F0833091F483B780640BC083B706
S11308808F7B02C083B7806483BF83B7877F05C033
S113089083B78F7B83BF83B7886083BF83B7887F29
S11308A083BF83B7682B63BF0895813049F028F074
S11308B0823061F0833069F0089583B78F7E02C07F
S11308C083B7806183BF83B78F7D08C083B78F7E72
S11308D002C083B7806183BF83B7806283BF0895FA
S11308E01F920F920FB60F9211242F933F934F93A1
S11308F05F936F937F938F939F93AF93BF93EF9384
S1130900FF93E0919800F0919900309709F00995D0
S1130910FF91EF91BF91AF919F918F917F916F91D3
S11309205F914F913F912F910F900FBE0F901F90A9
S113093018951F920F920FB60F9211242F933F9385
S11309404F935F936F937F938F939F93AF93BF93D3
S1130950EF93FF93E0919600F0919700309709F0A0
S11309600995FF91EF91BF91AF919F918F917F91E5
S11309706F915F914F913F912F910F900FBE0F9008
S11309801F9018951F920F920FB60F9211242F9358
S11309903F934F935F936F937F938F939F93AF9303
S11309A0BF93EF93FF93E0919400F09195003097FB
S11309B009F00995FF91EF91BF91AF919F918F91AC
S11309C07F916F915F914F913F912F910F900FBE47
S11309D00F901F9018951F920F920FB60F9211242B
S11309E02F933F934F935F936F937F938F939F9333
S11309F0AF93BF93EF93FF93E0919200F091930034
S1130A00309709F00995FF91EF91BF91AF919F91B4
S1130A108F917F916F915F914F913F912F910F90A3
S1130A200FBE0F901F9018951F920F920FB60F9242
S1130A3011244F935F936F937F938F939F93AF93FF
S1130A40BF9386E082BF80918E0090918F00A09129
S1130A509000B09191000196A11DB11D80938E006C
S1130A6090938F00A0939000B093910040919A00CE
S1130A7050919B0060919C0070919D008417950794
S1130A80A607B70751F41092600010928E001092DE
S1130A908F001092900010929100BF91AF919F919E
S1130AA08F917F916F915F914F910F900FBE0F9037
S1130AB01F90189562E083E00E94350482E00C9454
S1130AC055048536910568F4982F80E064E670E05B
S1130AD00E9472056230710518F061506CBF089570
S1130AE01CBE0895AA1BBB1B51E107C0AA1FBB1F54
S1130AF0A617B70710F0A61BB70B881F991F5A95A6
S1130B00A9F780959095BC01CD010895F894FFCF85
S1130B100150574D206D6F64650001010000000015
S1130B2000000000000000000000000000000000C1
S10D0B3000000000010202020202AC
S9030000FC
